S021000053414D33535F32346269745F5247425F696E746572666163652E737265634E
S214400000B82500202D054000290540002905400060
S2144000102905400029054000290540000000000051
S214400020000000000000000000000000290540001D
S2144000302905400000000000290540002905400031
S21440004029054000290540002905400029054000B3
S21440005029054000290540002905400029054000A3
S214400060290540002905400029054000F1014000CF
S21440007005024000190240002905400029054000BD
S2144000802905400029054000290540002905400073
S2144000902905400029054000290540002905400063
S2144000A029054000F106400029054000290540008A
S2144000B02905400029054000290540002905400043
S2144000C02905400029054000290540002905400033
S2144000D008B50548054B1B1A062B00D808BD044B2F
S2144000E0002BFBD09847F9E79C0940009F09400049
S2144000F00000000008B50748074B1B1A9B1003EB8F
S214400100D373591000D108BD044A002AFBD090474B
S214400110F9E700BF9C0940009C0940000000000031
S21440012010B5064C237843B9FFF7D2FF044B13B102
S2144001300448AFF300800123237010BD180500204B
S214400140000000009C09400008B5084B1BB1084859
S2144001500849AFF300800848036813B1074B03B162
S2144001609847BDE80840FFF7C5BF00BF0000000045
S2144001709C0940001C0500209C094000000000002F
S2144001802DE9F84381460E46144B984705464846A7
S214400190134B9847054017D0124F07F10C046C37A5
S2144001A054F80C3CB3420AD154F8081C294206D0F5
S2144001B023683046984754F8083C25EA0305BC4275
S2144001C002D01034002DEBD1074B1B6823B1074BF0
S2144001D01B680BB148469847BDE8F8834D0340007E
S2144001E05103400038050020B005002034050020AB
S2144001F008B502480B21024B984708BD000E0E403A
S2144002008101400008B502480C21024B984708BDC2
S21440021000100E408101400008B502480D21024BF7
S214400220984708BD00120E408101400010B50E48A8
S2144002300E4B984720200E4B98470E4CA047002860
S214400240FCD00D4B98470D4A0D4B9A620D4CA0477B
S2144002500028FCD010200C4B98470C4B984702487F
S214400260024B984710BD00BF0090D003A10000206D
S214400270B90340000504400015044000033F1F201A
S21440028000040E402504400055034000DD054000B4
S2144002900163704710B44264B1F1C05F2ED008D8F5
S2144002A0B1F1006F14D0B1F1805F1DD0002935D177
S2144002B035E0B1F1205F32D003D8B1F1005F27D0EE
S2144002C02CE0B1F1405F2AD0B1F1605F27D025E045
S2144002D0016F046FD343214019400167416F446F5B
S2144002E021400B40436719E0036F13430367436F96
S2144002F0416F0B4023EA020343670FE0036F016F31
S2144003000B4023EA02030367436F1343436705E04A
S214400310036F13430367436F1343436742605DF8BD
S214400320044B704710B44164019C0CB1416600E038
S21440033001660BB1016500E041650AB1016300E06A
S2144003404163016101605DF8044B7047C06C7047C3
S214400350806C7047174B1A6B22F07002104318637C
S2144003609B6E13F0080F09D14FF40063114901E06A
S214400370013B19D08A6E12F0080FF9D00D4B1A6B5C
S21440038022F0030242F002021A63986E10F0080050
S2144003900CD14FF40063074901E0013B08D08A6E58
S2144003A012F0080FF9D070470120704700207047C0
S2144003B00120704700040E4011490A6A42F45C125C
S2144003C042F008020A620A46936E13F4003FFBD0DE
S2144003D00B4A136A23F45C1323F0700343F45C1354
S2144003E003431362936E13F4003FFBD0044A136A30
S2144003F023F09B7323F4803343F45C1313627047FB
S21440040000040E40024B986E00F48030704700BFE8
S21440041000040E404FF00052014B9A62704700BFF6
S21440042000040E40024B986E00F00200704700BF7A
S21440043000040E40222820D81F280DD8124B9A6957
S214400440012383401A40934219D0012303FA00F057
S2144004500D4B1861002070470B4BD3F8082120380D
S214400460012383401A4093420BD0012303FA00F045
S214400470054BC3F80001002070470120704700205C
S21440048070470020704700BF00040E4010B441F093
S21440049002010E4B00F1100243F822109B6E4FF4FF
S2144004A08071814011EA030009D14FF40063074C84
S2144004B001E0013B05D0A26E1142FAD002E00020D6
S2144004C000E001205DF8044B704700BF00040E407A
S2144004D04FF4807303FA00F0014A1060704700BF83
S2144004E000040E4010B489014318022444504FF0D3
S2144004F0FF319962196A5A605DF8044B704700BF35
S214400500890105234350704700EB811148697047C5
S21440051000EB81118869704700EB81114A62704791
S21440052000EB8111086A7047FEE700BF10B51E4B0E
S2144005301E4A9A4203D01E4B1B4A9A4204D31D4B76
S2144005401D4A9A420FD31AE01C4B1D4CE41A24F065
S214400550030404340023144814495A581A500433E8
S214400560A342FAD1EBE7174B1749C91A21F003010A
S2144005701A1D1144002243F8042F8B42FBD1134A24
S21440058022F0604323F07F0311498B6002F1604202
S214400590B2F5803F03D28A6842F000528A600D4B23
S2144005A098470D4B9847FEE7000000209C09400006
S2144005B018050020B405002018050020040000207F
S2144005C01B05002014050020AF0500200000400059
S2144005D000ED00E041084000A50740003D4B1B6B86
S2144005E003F00303032B5DD8DFE803F0020E2B2B4A
S2144005F0394B5B6913F0800F14BF4FF400424FF441
S214400600FA42364B1A604DE0324B1B6A13F0807F3D
S21440061003D0334A314B1A6044E0324A2F4B1A60BB
S2144006202C4B1B6A03F07003102B02D0202B04D0F7
S21440063038E02D4A294B1A6034E0294A274B1A6085
S21440064030E0244B1B6A13F0807F03D0244A234BB0
S2144006501A6012E0234A214B1A601E4B1B6A03F0B5
S2144006607003102B02D0202B04D006E01E4A1B4BF2
S2144006701A6002E01A4A194B1A60164B1B6B03F0BD
S2144006800303022B134B07BF986A996AD86AD96A44
S214400690124BC0F30A401A6800FB0222C9B2B2FBF2
S2144006A0F1F21A600B4B1B6B03F07003702B07D1F3
S2144006B00A4B1A680D49A1FB020252081A6070479D
S2144006C0044B196B054BC1F302111A68CA401A60F5
S2144006D0704700BF00040E4010140E40E400002097
S2144006E0001BB70000093D0000127A00ABAAAAAA78
S2144006F010B50D4802210D4B984710F0400F11D011
S214400700094C204602210A4B98470A4B186020465F
S2144007100221094B9847094B186009484FF40001DD
S214400720084B984710BD00BF00000140210540001F
S21440073009054000A805002011054000AC05002032
S214400740000E0E409102400008B507484FF0805119
S2144007504FF40032054B984701202021044B984720
S2144007600120044B984708BD000E0E4095024000FD
S2144007708D044000D104400010B582B00B20064BDB
S21440078098470123009305484FF400010022134682
S214400790034CA04702B010BD35044000000E0E408A
S2144007A02503400008B51B4B98471B4B98471B4BEF
S2144007B0984719201A4B98471A4C204602211A4A45
S2144007C01A4B98471A4B4FF080621A66C3F890202F
S2144007D05A655A62C3F88020196F11431967596FDA
S2144007E021F0806159675A60124B4FF00072C3F88F
S2144007F08020C3F88021002183F819131A60204610
S214400800022140220C4B9847204602210B4B98472A
S214400810FEE700BF2D024000490740007907400030
S214400820350440000000014002060900E50440008F
S214400830000E0E4000E100E01905400001054000B2
S21440084070B50E4B0E4D0024ED1AAD101E46AC4250
S21440085004D056F8242090470134F8E700F08CF88E
S214400860084D094B0024ED1AAD101E46AC4204D08C
S21440087056F8242090470134F8E770BD84094000BC
S214400880840940008C09400084094000024B13B1A3
S214400890024800F005B8704700000000AD08400070
S2144008A0014600200246034600F016B838B5084D0B
S2144008B0084C641BA41005EB840524B155F8043D90
S2144008C0013C9847F9E7BDE8384000F05FB800BF04
S2144008D0980940009C0940002DE9F8439846224B71
S2144008E006461C680F46D4F84801914618B904F5E8
S2144008F0A670C4F8480143681F2B16DD1B4B1BB976
S2144009004FF0FF30BDE8F8834FF4C870AFF3008077
S2144009100028F5D0D4F84811002545600160C4F899
S2144009204801C0F88851C0F88C514468A6B10122ED
S214400930A24000EB8405C5F88890D0F88811022EB6
S21440094041EA0201C0F88811C5F8088104D1D0F800
S2144009508C311A43C0F88C21631C0234436040F843
S21440096024700020BDE8F8837009400000000000B5
S214400970F000002043000000F8B500BFF8BC08BCFB
S2144009809E4670478D08400049014000F8B500BFBC
S210400990F8BC08BC9E46704721014000A1
S21440099C4FF440721F4B1A60A3F5C0631B6A13F0EA
S2144009AC807F07D11C4A1D4B1A621A46936E13F071
S2144009BC010FFBD01A4A194B1A621A46936E13F45F
S2144009CC803FFBD0154B1A6B22F0030242F001021B
S2144009DC1A631A46936E13F0080FFBD0114A0F4B4E
S2144009EC9A621A46936E13F0020FFBD011220B4BF1
S2144009FC1A631A46936E13F0080FFBD01222074B5D
S214400A0C1A631A46936E13F0080FFBD0064A074B30
S214400A1C1A607047000A0E400908370000040E4062
S214400A2C09083701033F1F200090D003E400002044
S214400A3C0C4B984203D800220B4B1A6070470B4B5A
S214400A4C984204D84FF48072074B1A607047084B94
S214400A5C984294BF4FF400724FF44072024B1A60A7
S214400A6C704700BF3F6F4001000A0E40BF0E160293
S214400A7CFF86930300093D00F000002000000000B4
S214400A8C00000000DC03002044040020AC040020DE
S214400A9C0000000000000000000000000000000005
S214400AAC00000000000000000000000000000000F5
S214400ABC0000000074094000000000000000000028
S214400ACC00000000000000000000000000000000D5
S214400ADC00000000000000000000000000000000C5
S214400AEC00000000000000000000000000000000B5
S214400AFC00000000000000000000000000000000A5
S214400B0C0000000000000000000000000000000094
S214400B1C0000000000000000000000000000000084
S214400B2C0000000000000000010000000000000073
S214400B3C0E33CDAB34126DE6ECDE05000B00000038
S214400B4C0000000000000000000000000000000054
S214400B5C0000000000000000000000000000000044
S214400B6C0000000000000000000000000000000034
S214400B7C0000000000000000000000000000000024
S80440052D89
